{
  "contractName": "DemocracyChain",
  "abi": [
    {
      "inputs": [
        {
          "internalType": "address",
          "name": "addr",
          "type": "address"
        }
      ],
      "stateMutability": "nonpayable",
      "type": "constructor"
    },
    {
      "anonymous": false,
      "inputs": [
        {
          "indexed": false,
          "internalType": "string",
          "name": "fullname",
          "type": "string"
        },
        {
          "indexed": true,
          "internalType": "address",
          "name": "voter",
          "type": "address"
        },
        {
          "indexed": false,
          "internalType": "uint256",
          "name": "timestamp",
          "type": "uint256"
        }
      ],
      "name": "Voted",
      "type": "event"
    },
    {
      "inputs": [],
      "name": "election_commission",
      "outputs": [
        {
          "internalType": "address",
          "name": "",
          "type": "address"
        }
      ],
      "stateMutability": "view",
      "type": "function",
      "constant": true
    },
    {
      "inputs": [
        {
          "internalType": "address",
          "name": "",
          "type": "address"
        }
      ],
      "name": "users",
      "outputs": [
        {
          "internalType": "uint256",
          "name": "pollID",
          "type": "uint256"
        },
        {
          "internalType": "uint256",
          "name": "id",
          "type": "uint256"
        },
        {
          "internalType": "string",
          "name": "image",
          "type": "string"
        },
        {
          "internalType": "string",
          "name": "fullname",
          "type": "string"
        },
        {
          "internalType": "string",
          "name": "partyName",
          "type": "string"
        },
        {
          "internalType": "address",
          "name": "voter",
          "type": "address"
        },
        {
          "internalType": "uint256",
          "name": "votes",
          "type": "uint256"
        }
      ],
      "stateMutability": "view",
      "type": "function",
      "constant": true
    },
    {
      "inputs": [
        {
          "internalType": "string",
          "name": "image",
          "type": "string"
        },
        {
          "internalType": "string",
          "name": "title",
          "type": "string"
        },
        {
          "internalType": "string",
          "name": "description",
          "type": "string"
        },
        {
          "internalType": "uint256",
          "name": "startsAt",
          "type": "uint256"
        },
        {
          "internalType": "uint256",
          "name": "endsAt",
          "type": "uint256"
        }
      ],
      "name": "createPoll",
      "outputs": [],
      "stateMutability": "nonpayable",
      "type": "function"
    },
    {
      "inputs": [
        {
          "internalType": "uint256",
          "name": "id",
          "type": "uint256"
        },
        {
          "internalType": "string",
          "name": "image",
          "type": "string"
        },
        {
          "internalType": "string",
          "name": "title",
          "type": "string"
        },
        {
          "internalType": "string",
          "name": "description",
          "type": "string"
        },
        {
          "internalType": "uint256",
          "name": "startsAt",
          "type": "uint256"
        },
        {
          "internalType": "uint256",
          "name": "endsAt",
          "type": "uint256"
        }
      ],
      "name": "updatePoll",
      "outputs": [],
      "stateMutability": "nonpayable",
      "type": "function"
    },
    {
      "inputs": [
        {
          "internalType": "uint256",
          "name": "id",
          "type": "uint256"
        }
      ],
      "name": "deletePoll",
      "outputs": [],
      "stateMutability": "nonpayable",
      "type": "function"
    },
    {
      "inputs": [
        {
          "internalType": "uint256",
          "name": "id",
          "type": "uint256"
        }
      ],
      "name": "getPoll",
      "outputs": [
        {
          "components": [
            {
              "internalType": "uint256",
              "name": "id",
              "type": "uint256"
            },
            {
              "internalType": "string",
              "name": "image",
              "type": "string"
            },
            {
              "internalType": "string",
              "name": "title",
              "type": "string"
            },
            {
              "internalType": "string",
              "name": "description",
              "type": "string"
            },
            {
              "internalType": "uint256",
              "name": "votes",
              "type": "uint256"
            },
            {
              "internalType": "uint256",
              "name": "contestants",
              "type": "uint256"
            },
            {
              "internalType": "bool",
              "name": "deleted",
              "type": "bool"
            },
            {
              "internalType": "address",
              "name": "director",
              "type": "address"
            },
            {
              "internalType": "uint256",
              "name": "startsAt",
              "type": "uint256"
            },
            {
              "internalType": "uint256",
              "name": "endsAt",
              "type": "uint256"
            },
            {
              "internalType": "uint256",
              "name": "timestamp",
              "type": "uint256"
            }
          ],
          "internalType": "struct DemocracyChain.PollStruct",
          "name": "",
          "type": "tuple"
        }
      ],
      "stateMutability": "view",
      "type": "function",
      "constant": true
    },
    {
      "inputs": [],
      "name": "getPolls",
      "outputs": [
        {
          "components": [
            {
              "internalType": "uint256",
              "name": "id",
              "type": "uint256"
            },
            {
              "internalType": "string",
              "name": "image",
              "type": "string"
            },
            {
              "internalType": "string",
              "name": "title",
              "type": "string"
            },
            {
              "internalType": "string",
              "name": "description",
              "type": "string"
            },
            {
              "internalType": "uint256",
              "name": "votes",
              "type": "uint256"
            },
            {
              "internalType": "uint256",
              "name": "contestants",
              "type": "uint256"
            },
            {
              "internalType": "bool",
              "name": "deleted",
              "type": "bool"
            },
            {
              "internalType": "address",
              "name": "director",
              "type": "address"
            },
            {
              "internalType": "uint256",
              "name": "startsAt",
              "type": "uint256"
            },
            {
              "internalType": "uint256",
              "name": "endsAt",
              "type": "uint256"
            },
            {
              "internalType": "uint256",
              "name": "timestamp",
              "type": "uint256"
            }
          ],
          "internalType": "struct DemocracyChain.PollStruct[]",
          "name": "",
          "type": "tuple[]"
        }
      ],
      "stateMutability": "view",
      "type": "function",
      "constant": true
    },
    {
      "inputs": [
        {
          "internalType": "uint256",
          "name": "pollId",
          "type": "uint256"
        },
        {
          "internalType": "string",
          "name": "image",
          "type": "string"
        },
        {
          "internalType": "string",
          "name": "fullname",
          "type": "string"
        },
        {
          "internalType": "string",
          "name": "partyName",
          "type": "string"
        }
      ],
      "name": "register",
      "outputs": [],
      "stateMutability": "nonpayable",
      "type": "function"
    },
    {
      "inputs": [
        {
          "internalType": "uint256",
          "name": "id",
          "type": "uint256"
        }
      ],
      "name": "listContestants",
      "outputs": [
        {
          "components": [
            {
              "internalType": "uint256",
              "name": "pollID",
              "type": "uint256"
            },
            {
              "internalType": "uint256",
              "name": "id",
              "type": "uint256"
            },
            {
              "internalType": "string",
              "name": "image",
              "type": "string"
            },
            {
              "internalType": "string",
              "name": "fullname",
              "type": "string"
            },
            {
              "internalType": "string",
              "name": "partyName",
              "type": "string"
            },
            {
              "internalType": "address",
              "name": "voter",
              "type": "address"
            },
            {
              "internalType": "uint256",
              "name": "votes",
              "type": "uint256"
            },
            {
              "internalType": "address[]",
              "name": "voters",
              "type": "address[]"
            }
          ],
          "internalType": "struct DemocracyChain.ElectedPerson[]",
          "name": "",
          "type": "tuple[]"
        }
      ],
      "stateMutability": "view",
      "type": "function",
      "constant": true
    },
    {
      "inputs": [
        {
          "internalType": "uint256",
          "name": "id",
          "type": "uint256"
        },
        {
          "internalType": "uint256",
          "name": "cid",
          "type": "uint256"
        }
      ],
      "name": "vote",
      "outputs": [],
      "stateMutability": "nonpayable",
      "type": "function"
    }
  ],
  "bytecode": "0x60806040523480156200001157600080fd5b506040516200382d3803806200382d8339818101604052810190620000379190620000e8565b806000806101000a81548173ffffffffffffffffffffffffffffffffffffffff021916908373ffffffffffffffffffffffffffffffffffffffff160217905550506200011a565b600080fd5b600073ffffffffffffffffffffffffffffffffffffffff82169050919050565b6000620000b08262000083565b9050919050565b620000c281620000a3565b8114620000ce57600080fd5b50565b600081519050620000e281620000b7565b92915050565b6000602082840312156200010157620001006200007e565b5b60006200011184828501620000d1565b91505092915050565b613703806200012a6000396000f3fe608060405234801561001057600080fd5b506004361061009e5760003560e01c80633d59a0e2116100665780633d59a0e214610147578063a87430ba14610163578063b384abef14610199578063dd2b4bd4146101b5578063f0d0bc45146101e55761009e565b8063029433f0146100a3578063120fe89b146100bf5780631a8cbcaa146100dd5780631f35b51d1461010d5780633aca0d3514610129575b600080fd5b6100bd60048036038101906100b8919061232b565b610201565b005b6100c7610618565b6040516100d491906126b5565b60405180910390f35b6100f760048036038101906100f291906126d7565b6108db565b6040516101049190612801565b60405180910390f35b610127600480360381019061012291906126d7565b610b7b565b005b610131610d5d565b60405161013e9190612832565b60405180910390f35b610161600480360381019061015c919061284d565b610d81565b005b61017d60048036038101906101789190612934565b610f7e565b60405161019097969594939291906129ba565b60405180910390f35b6101b360048036038101906101ae9190612a3e565b611178565b005b6101cf60048036038101906101ca91906126d7565b611591565b6040516101dc9190612cb4565b60405180910390f35b6101ff60048036038101906101fa9190612cd6565b61191c565b005b3373ffffffffffffffffffffffffffffffffffffffff1660008054906101000a900473ffffffffffffffffffffffffffffffffffffffff1673ffffffffffffffffffffffffffffffffffffffff161461028f576040517f08c379a000000000000000000000000000000000000000000000000000000000815260040161028690612e17565b60405180910390fd5b6008600087815260200190815260200160002060009054906101000a900460ff166102ef576040517f08c379a00000000000000000000000000000000000000000000000000000000081526004016102e690612e83565b60405180910390fd5b3373ffffffffffffffffffffffffffffffffffffffff166003878154811061031a57610319612ea3565b5b90600052602060002090600a020160060160019054906101000a900473ffffffffffffffffffffffffffffffffffffffff1673ffffffffffffffffffffffffffffffffffffffff16146103a2576040517f08c379a000000000000000000000000000000000000000000000000000000000815260040161039990612f1e565b60405180910390fd5b60008451116103e6576040517f08c379a00000000000000000000000000000000000000000000000000000000081526004016103dd90612f8a565b60405180910390fd5b600083511161042a576040517f08c379a000000000000000000000000000000000000000000000000000000000815260040161042190612ff6565b60405180910390fd5b600085511161046e576040517f08c379a000000000000000000000000000000000000000000000000000000000815260040161046590613062565b60405180910390fd5b6003868154811061048257610481612ea3565b5b90600052602060002090600a020160060160009054906101000a900460ff16156104e1576040517f08c379a00000000000000000000000000000000000000000000000000000000081526004016104d8906130ce565b60405180910390fd5b818111610523576040517f08c379a000000000000000000000000000000000000000000000000000000000815260040161051a90613160565b60405180910390fd5b836003878154811061053857610537612ea3565b5b90600052602060002090600a02016002019081610555919061338c565b50826003878154811061056b5761056a612ea3565b5b90600052602060002090600a02016003019081610588919061338c565b50816003878154811061059e5761059d612ea3565b5b90600052602060002090600a02016007018190555080600387815481106105c8576105c7612ea3565b5b90600052602060002090600a02016008018190555084600387815481106105f2576105f1612ea3565b5b90600052602060002090600a0201600101908161060f919061338c565b50505050505050565b60606003805480602002602001604051908101604052809291908181526020016000905b828210156108d257838290600052602060002090600a0201604051806101600160405290816000820154815260200160018201805461067a906131af565b80601f01602080910402602001604051908101604052809291908181526020018280546106a6906131af565b80156106f35780601f106106c8576101008083540402835291602001916106f3565b820191906000526020600020905b8154815290600101906020018083116106d657829003601f168201915b5050505050815260200160028201805461070c906131af565b80601f0160208091040260200160405190810160405280929190818152602001828054610738906131af565b80156107855780601f1061075a57610100808354040283529160200191610785565b820191906000526020600020905b81548152906001019060200180831161076857829003601f168201915b5050505050815260200160038201805461079e906131af565b80601f01602080910402602001604051908101604052809291908181526020018280546107ca906131af565b80156108175780601f106107ec57610100808354040283529160200191610817565b820191906000526020600020905b8154815290600101906020018083116107fa57829003601f168201915b5050505050815260200160048201548152602001600582015481526020016006820160009054906101000a900460ff161515151581526020016006820160019054906101000a900473ffffffffffffffffffffffffffffffffffffffff1673ffffffffffffffffffffffffffffffffffffffff1673ffffffffffffffffffffffffffffffffffffffff16815260200160078201548152602001600882015481526020016009820154815250508152602001906001019061063c565b50505050905090565b6108e3612027565b600382815481106108f7576108f6612ea3565b5b90600052602060002090600a0201604051806101600160405290816000820154815260200160018201805461092b906131af565b80601f0160208091040260200160405190810160405280929190818152602001828054610957906131af565b80156109a45780601f10610979576101008083540402835291602001916109a4565b820191906000526020600020905b81548152906001019060200180831161098757829003601f168201915b505050505081526020016002820180546109bd906131af565b80601f01602080910402602001604051908101604052809291908181526020018280546109e9906131af565b8015610a365780601f10610a0b57610100808354040283529160200191610a36565b820191906000526020600020905b815481529060010190602001808311610a1957829003601f168201915b50505050508152602001600382018054610a4f906131af565b80601f0160208091040260200160405190810160405280929190818152602001828054610a7b906131af565b8015610ac85780601f10610a9d57610100808354040283529160200191610ac8565b820191906000526020600020905b815481529060010190602001808311610aab57829003601f168201915b5050505050815260200160048201548152602001600582015481526020016006820160009054906101000a900460ff161515151581526020016006820160019054906101000a900473ffffffffffffffffffffffffffffffffffffffff1673ffffffffffffffffffffffffffffffffffffffff1673ffffffffffffffffffffffffffffffffffffffff16815260200160078201548152602001600882015481526020016009820154815250509050919050565b3373ffffffffffffffffffffffffffffffffffffffff1660008054906101000a900473ffffffffffffffffffffffffffffffffffffffff1673ffffffffffffffffffffffffffffffffffffffff1614610c09576040517f08c379a0000000000000000000000000000000000000000000000000000000008152600401610c0090612e17565b60405180910390fd5b6008600082815260200190815260200160002060009054906101000a900460ff16610c69576040517f08c379a0000000000000000000000000000000000000000000000000000000008152600401610c6090612e83565b60405180910390fd5b3373ffffffffffffffffffffffffffffffffffffffff1660038281548110610c9457610c93612ea3565b5b90600052602060002090600a020160060160019054906101000a900473ffffffffffffffffffffffffffffffffffffffff1673ffffffffffffffffffffffffffffffffffffffff1614610d1c576040517f08c379a0000000000000000000000000000000000000000000000000000000008152600401610d1390612f1e565b60405180910390fd5b600160038281548110610d3257610d31612ea3565b5b90600052602060002090600a020160060160006101000a81548160ff02191690831515021790555050565b60008054906101000a900473ffffffffffffffffffffffffffffffffffffffff1681565b6008600085815260200190815260200160002060009054906101000a900460ff16610de1576040517f08c379a0000000000000000000000000000000000000000000000000000000008152600401610dd890612e83565b60405180910390fd5b610de9612099565b60026000815480929190610dfc9061348d565b91905055816020018181525050838160400181905250828160600181905250338160a0019073ffffffffffffffffffffffffffffffffffffffff16908173ffffffffffffffffffffffffffffffffffffffff16815250508481600001818152505081816080018190525080600460003373ffffffffffffffffffffffffffffffffffffffff1673ffffffffffffffffffffffffffffffffffffffff16815260200190815260200160002060008201518160000155602082015181600101556040820151816002019081610ecf919061338c565b506060820151816003019081610ee5919061338c565b506080820151816004019081610efb919061338c565b5060a08201518160050160006101000a81548173ffffffffffffffffffffffffffffffffffffffff021916908373ffffffffffffffffffffffffffffffffffffffff16021790555060c0820151816006015560e0820151816007019080519060200190610f699291906120f4565b50905050610f778582611cae565b5050505050565b6004602052806000526040600020600091509050806000015490806001015490806002018054610fad906131af565b80601f0160208091040260200160405190810160405280929190818152602001828054610fd9906131af565b80156110265780601f10610ffb57610100808354040283529160200191611026565b820191906000526020600020905b81548152906001019060200180831161100957829003601f168201915b50505050509080600301805461103b906131af565b80601f0160208091040260200160405190810160405280929190818152602001828054611067906131af565b80156110b45780601f10611089576101008083540402835291602001916110b4565b820191906000526020600020905b81548152906001019060200180831161109757829003601f168201915b5050505050908060040180546110c9906131af565b80601f01602080910402602001604051908101604052809291908181526020018280546110f5906131af565b80156111425780601f1061111757610100808354040283529160200191611142565b820191906000526020600020905b81548152906001019060200180831161112557829003601f168201915b5050505050908060050160009054906101000a900473ffffffffffffffffffffffffffffffffffffffff16908060060154905087565b6008600083815260200190815260200160002060009054906101000a900460ff166111d8576040517f08c379a00000000000000000000000000000000000000000000000000000000081526004016111cf90612e83565b60405180910390fd5b6005600083815260200190815260200160002060003373ffffffffffffffffffffffffffffffffffffffff1673ffffffffffffffffffffffffffffffffffffffff16815260200190815260200160002060009054906101000a900460ff1615611276576040517f08c379a000000000000000000000000000000000000000000000000000000000815260040161126d90613521565b60405180910390fd5b6003828154811061128a57611289612ea3565b5b90600052602060002090600a020160060160009054906101000a900460ff16156112e9576040517f08c379a00000000000000000000000000000000000000000000000000000000081526004016112e0906130ce565b60405180910390fd5b600382815481106112fd576112fc612ea3565b5b90600052602060002090600a0201600701546003838154811061132357611322612ea3565b5b90600052602060002090600a02016008015411611375576040517f08c379a000000000000000000000000000000000000000000000000000000000815260040161136c90613160565b60405180910390fd5b6003828154811061138957611388612ea3565b5b90600052602060002090600a020160040160008154809291906113ab9061348d565b91905055506007600083815260200190815260200160002081815481106113d5576113d4612ea3565b5b906000526020600020906008020160060160008154809291906113f79061348d565b919050555060076000838152602001908152602001600020818154811061142157611420612ea3565b5b9060005260206000209060080201600701339080600181540180825580915050600190039060005260206000200160009091909190916101000a81548173ffffffffffffffffffffffffffffffffffffffff021916908373ffffffffffffffffffffffffffffffffffffffff16021790555060016005600084815260200190815260200160002060003373ffffffffffffffffffffffffffffffffffffffff1673ffffffffffffffffffffffffffffffffffffffff16815260200190815260200160002060006101000a81548160ff0219169083151502179055503373ffffffffffffffffffffffffffffffffffffffff167f06d72643834bbccea11dfeb41d4aa1a5977f5cb34f87719f71daa6b2b76f29aa600460003373ffffffffffffffffffffffffffffffffffffffff1673ffffffffffffffffffffffffffffffffffffffff168152602001908152602001600020600301426040516115859291906135c5565b60405180910390a25050565b60606008600083815260200190815260200160002060009054906101000a900460ff166115f3576040517f08c379a00000000000000000000000000000000000000000000000000000000081526004016115ea90612e83565b60405180910390fd5b60076000838152602001908152602001600020805480602002602001604051908101604052809291908181526020016000905b82821015611911578382906000526020600020906008020160405180610100016040529081600082015481526020016001820154815260200160028201805461166e906131af565b80601f016020809104026020016040519081016040528092919081815260200182805461169a906131af565b80156116e75780601f106116bc576101008083540402835291602001916116e7565b820191906000526020600020905b8154815290600101906020018083116116ca57829003601f168201915b50505050508152602001600382018054611700906131af565b80601f016020809104026020016040519081016040528092919081815260200182805461172c906131af565b80156117795780601f1061174e57610100808354040283529160200191611779565b820191906000526020600020905b81548152906001019060200180831161175c57829003601f168201915b50505050508152602001600482018054611792906131af565b80601f01602080910402602001604051908101604052809291908181526020018280546117be906131af565b801561180b5780601f106117e05761010080835404028352916020019161180b565b820191906000526020600020905b8154815290600101906020018083116117ee57829003601f168201915b505050505081526020016005820160009054906101000a900473ffffffffffffffffffffffffffffffffffffffff1673ffffffffffffffffffffffffffffffffffffffff1673ffffffffffffffffffffffffffffffffffffffff16815260200160068201548152602001600782018054806020026020016040519081016040528092919081815260200182805480156118f957602002820191906000526020600020905b8160009054906101000a900473ffffffffffffffffffffffffffffffffffffffff1673ffffffffffffffffffffffffffffffffffffffff16815260200190600101908083116118af575b50505050508152505081526020019060010190611626565b505050509050919050565b3373ffffffffffffffffffffffffffffffffffffffff1660008054906101000a900473ffffffffffffffffffffffffffffffffffffffff1673ffffffffffffffffffffffffffffffffffffffff16146119aa576040517f08c379a00000000000000000000000000000000000000000000000000000000081526004016119a190612e17565b60405180910390fd5b60008451116119ee576040517f08c379a00000000000000000000000000000000000000000000000000000000081526004016119e590612f8a565b60405180910390fd5b6000835111611a32576040517f08c379a0000000000000000000000000000000000000000000000000000000008152600401611a2990612ff6565b60405180910390fd5b6000855111611a76576040517f08c379a0000000000000000000000000000000000000000000000000000000008152600401611a6d90613062565b60405180910390fd5b600082118015611a8557508181115b611ac4576040517f08c379a0000000000000000000000000000000000000000000000000000000008152600401611abb90613160565b60405180910390fd5b611acc612027565b60016000815480929190611adf9061348d565b9190505581600001818152505084816040018190525083816060018190525085816020018190525082816101000181815250508181610120018181525050338160e0019073ffffffffffffffffffffffffffffffffffffffff16908173ffffffffffffffffffffffffffffffffffffffff1681525050428161014001818152505060038190806001815401808255809150506001900390600052602060002090600a0201600090919091909150600082015181600001556020820151816001019081611bab919061338c565b506040820151816002019081611bc1919061338c565b506060820151816003019081611bd7919061338c565b506080820151816004015560a0820151816005015560c08201518160060160006101000a81548160ff02191690831515021790555060e08201518160060160016101000a81548173ffffffffffffffffffffffffffffffffffffffff021916908373ffffffffffffffffffffffffffffffffffffffff16021790555061010082015181600701556101208201518160080155610140820151816009015550506001600860008360000151815260200190815260200160002060006101000a81548160ff021916908315150217905550505050505050565b3373ffffffffffffffffffffffffffffffffffffffff16600460003373ffffffffffffffffffffffffffffffffffffffff1673ffffffffffffffffffffffffffffffffffffffff16815260200190815260200160002060050160009054906101000a900473ffffffffffffffffffffffffffffffffffffffff1673ffffffffffffffffffffffffffffffffffffffff1614611d7e576040517f08c379a0000000000000000000000000000000000000000000000000000000008152600401611d7590613641565b60405180910390fd5b6008600083815260200190815260200160002060009054906101000a900460ff16611dde576040517f08c379a0000000000000000000000000000000000000000000000000000000008152600401611dd590612e83565b60405180910390fd5b6006600083815260200190815260200160002060003373ffffffffffffffffffffffffffffffffffffffff1673ffffffffffffffffffffffffffffffffffffffff16815260200190815260200160002060009054906101000a900460ff1615611e7c576040517f08c379a0000000000000000000000000000000000000000000000000000000008152600401611e73906136ad565b60405180910390fd5b6007600083815260200190815260200160002081908060018154018082558091505060019003906000526020600020906008020160009091909190915060008201518160000155602082015181600101556040820151816002019081611ee2919061338c565b506060820151816003019081611ef8919061338c565b506080820151816004019081611f0e919061338c565b5060a08201518160050160006101000a81548173ffffffffffffffffffffffffffffffffffffffff021916908373ffffffffffffffffffffffffffffffffffffffff16021790555060c0820151816006015560e0820151816007019080519060200190611f7c9291906120f4565b50505060016006600084815260200190815260200160002060003373ffffffffffffffffffffffffffffffffffffffff1673ffffffffffffffffffffffffffffffffffffffff16815260200190815260200160002060006101000a81548160ff02191690831515021790555060038281548110611ffc57611ffb612ea3565b5b90600052602060002090600a0201600501600081548092919061201e9061348d565b91905055505050565b604051806101600160405280600081526020016060815260200160608152602001606081526020016000815260200160008152602001600015158152602001600073ffffffffffffffffffffffffffffffffffffffff1681526020016000815260200160008152602001600081525090565b6040518061010001604052806000815260200160008152602001606081526020016060815260200160608152602001600073ffffffffffffffffffffffffffffffffffffffff16815260200160008152602001606081525090565b82805482825590600052602060002090810192821561216d579160200282015b8281111561216c5782518260006101000a81548173ffffffffffffffffffffffffffffffffffffffff021916908373ffffffffffffffffffffffffffffffffffffffff16021790555091602001919060010190612114565b5b50905061217a919061217e565b5090565b5b8082111561219757600081600090555060010161217f565b5090565b6000604051905090565b600080fd5b600080fd5b6000819050919050565b6121c2816121af565b81146121cd57600080fd5b50565b6000813590506121df816121b9565b92915050565b600080fd5b600080fd5b6000601f19601f8301169050919050565b7f4e487b7100000000000000000000000000000000000000000000000000000000600052604160045260246000fd5b612238826121ef565b810181811067ffffffffffffffff8211171561225757612256612200565b5b80604052505050565b600061226a61219b565b9050612276828261222f565b919050565b600067ffffffffffffffff82111561229657612295612200565b5b61229f826121ef565b9050602081019050919050565b82818337600083830152505050565b60006122ce6122c98461227b565b612260565b9050828152602081018484840111156122ea576122e96121ea565b5b6122f58482856122ac565b509392505050565b600082601f830112612312576123116121e5565b5b81356123228482602086016122bb565b91505092915050565b60008060008060008060c08789031215612348576123476121a5565b5b600061235689828a016121d0565b965050602087013567ffffffffffffffff811115612377576123766121aa565b5b61238389828a016122fd565b955050604087013567ffffffffffffffff8111156123a4576123a36121aa565b5b6123b089828a016122fd565b945050606087013567ffffffffffffffff8111156123d1576123d06121aa565b5b6123dd89828a016122fd565b93505060806123ee89828a016121d0565b92505060a06123ff89828a016121d0565b9150509295509295509295565b600081519050919050565b600082825260208201905092915050565b6000819050602082019050919050565b612441816121af565b82525050565b600081519050919050565b600082825260208201905092915050565b60005b83811015612481578082015181840152602081019050612466565b60008484015250505050565b600061249882612447565b6124a28185612452565b93506124b2818560208601612463565b6124bb816121ef565b840191505092915050565b60008115159050919050565b6124db816124c6565b82525050565b600073ffffffffffffffffffffffffffffffffffffffff82169050919050565b600061250c826124e1565b9050919050565b61251c81612501565b82525050565b60006101608301600083015161253b6000860182612438565b5060208301518482036020860152612553828261248d565b9150506040830151848203604086015261256d828261248d565b91505060608301518482036060860152612587828261248d565b915050608083015161259c6080860182612438565b5060a08301516125af60a0860182612438565b5060c08301516125c260c08601826124d2565b5060e08301516125d560e0860182612513565b506101008301516125ea610100860182612438565b506101208301516125ff610120860182612438565b50610140830151612614610140860182612438565b508091505092915050565b600061262b8383612522565b905092915050565b6000602082019050919050565b600061264b8261240c565b6126558185612417565b93508360208202850161266785612428565b8060005b858110156126a35784840389528151612684858261261f565b945061268f83612633565b925060208a0199505060018101905061266b565b50829750879550505050505092915050565b600060208201905081810360008301526126cf8184612640565b905092915050565b6000602082840312156126ed576126ec6121a5565b5b60006126fb848285016121d0565b91505092915050565b60006101608301600083015161271d6000860182612438565b5060208301518482036020860152612735828261248d565b9150506040830151848203604086015261274f828261248d565b91505060608301518482036060860152612769828261248d565b915050608083015161277e6080860182612438565b5060a083015161279160a0860182612438565b5060c08301516127a460c08601826124d2565b5060e08301516127b760e0860182612513565b506101008301516127cc610100860182612438565b506101208301516127e1610120860182612438565b506101408301516127f6610140860182612438565b508091505092915050565b6000602082019050818103600083015261281b8184612704565b905092915050565b61282c81612501565b82525050565b60006020820190506128476000830184612823565b92915050565b60008060008060808587031215612867576128666121a5565b5b6000612875878288016121d0565b945050602085013567ffffffffffffffff811115612896576128956121aa565b5b6128a2878288016122fd565b935050604085013567ffffffffffffffff8111156128c3576128c26121aa565b5b6128cf878288016122fd565b925050606085013567ffffffffffffffff8111156128f0576128ef6121aa565b5b6128fc878288016122fd565b91505092959194509250565b61291181612501565b811461291c57600080fd5b50565b60008135905061292e81612908565b92915050565b60006020828403121561294a576129496121a5565b5b60006129588482850161291f565b91505092915050565b61296a816121af565b82525050565b600082825260208201905092915050565b600061298c82612447565b6129968185612970565b93506129a6818560208601612463565b6129af816121ef565b840191505092915050565b600060e0820190506129cf600083018a612961565b6129dc6020830189612961565b81810360408301526129ee8188612981565b90508181036060830152612a028187612981565b90508181036080830152612a168186612981565b9050612a2560a0830185612823565b612a3260c0830184612961565b98975050505050505050565b60008060408385031215612a5557612a546121a5565b5b6000612a63858286016121d0565b9250506020612a74858286016121d0565b9150509250929050565b600081519050919050565b600082825260208201905092915050565b6000819050602082019050919050565b600081519050919050565b600082825260208201905092915050565b6000819050602082019050919050565b6000612ae28383612513565b60208301905092915050565b6000602082019050919050565b6000612b0682612aaa565b612b108185612ab5565b9350612b1b83612ac6565b8060005b83811015612b4c578151612b338882612ad6565b9750612b3e83612aee565b925050600181019050612b1f565b5085935050505092915050565b600061010083016000830151612b726000860182612438565b506020830151612b856020860182612438565b5060408301518482036040860152612b9d828261248d565b91505060608301518482036060860152612bb7828261248d565b91505060808301518482036080860152612bd1828261248d565b91505060a0830151612be660a0860182612513565b5060c0830151612bf960c0860182612438565b5060e083015184820360e0860152612c118282612afb565b9150508091505092915050565b6000612c2a8383612b59565b905092915050565b6000602082019050919050565b6000612c4a82612a7e565b612c548185612a89565b935083602082028501612c6685612a9a565b8060005b85811015612ca25784840389528151612c838582612c1e565b9450612c8e83612c32565b925060208a01995050600181019050612c6a565b50829750879550505050505092915050565b60006020820190508181036000830152612cce8184612c3f565b905092915050565b600080600080600060a08688031215612cf257612cf16121a5565b5b600086013567ffffffffffffffff811115612d1057612d0f6121aa565b5b612d1c888289016122fd565b955050602086013567ffffffffffffffff811115612d3d57612d3c6121aa565b5b612d49888289016122fd565b945050604086013567ffffffffffffffff811115612d6a57612d696121aa565b5b612d76888289016122fd565b9350506060612d87888289016121d0565b9250506080612d98888289016121d0565b9150509295509295909350565b7f596f7520617265206e6f742066726f6d20656c656374696f6e20636f6d6d697360008201527f73696f6e20686561642000000000000000000000000000000000000000000000602082015250565b6000612e01602a83612970565b9150612e0c82612da5565b604082019050919050565b60006020820190508181036000830152612e3081612df4565b9050919050565b7f506f6c6c206e6f7420666f756e64000000000000000000000000000000000000600082015250565b6000612e6d600e83612970565b9150612e7882612e37565b602082019050919050565b60006020820190508181036000830152612e9c81612e60565b9050919050565b7f4e487b7100000000000000000000000000000000000000000000000000000000600052603260045260246000fd5b7f556e617574686f72697a656420656e7469747900000000000000000000000000600082015250565b6000612f08601383612970565b9150612f1382612ed2565b602082019050919050565b60006020820190508181036000830152612f3781612efb565b9050919050565b7f5469746c652063616e6e6f7420626520656d7074790000000000000000000000600082015250565b6000612f74601583612970565b9150612f7f82612f3e565b602082019050919050565b60006020820190508181036000830152612fa381612f67565b9050919050565b7f4465736372697074696f6e2063616e6e6f7420626520656d7074790000000000600082015250565b6000612fe0601b83612970565b9150612feb82612faa565b602082019050919050565b6000602082019050818103600083015261300f81612fd3565b9050919050565b7f496d6167652055524c2063616e6e6f7420626520656d70747900000000000000600082015250565b600061304c601983612970565b915061305782613016565b602082019050919050565b6000602082019050818103600083015261307b8161303f565b9050919050565b7f506f6c6c696e6720616c72656164792073746172746564000000000000000000600082015250565b60006130b8601783612970565b91506130c382613082565b602082019050919050565b600060208201905081810360008301526130e7816130ab565b9050919050565b7f456e642064617465206d7573742062652067726561746572207468616e20737460008201527f6172742064617465000000000000000000000000000000000000000000000000602082015250565b600061314a602883612970565b9150613155826130ee565b604082019050919050565b600060208201905081810360008301526131798161313d565b9050919050565b7f4e487b7100000000000000000000000000000000000000000000000000000000600052602260045260246000fd5b600060028204905060018216806131c757607f821691505b6020821081036131da576131d9613180565b5b50919050565b60008190508160005260206000209050919050565b60006020601f8301049050919050565b600082821b905092915050565b6000600883026132427fffffffffffffffffffffffffffffffffffffffffffffffffffffffffffffffff82613205565b61324c8683613205565b95508019841693508086168417925050509392505050565b6000819050919050565b600061328961328461327f846121af565b613264565b6121af565b9050919050565b6000819050919050565b6132a38361326e565b6132b76132af82613290565b848454613212565b825550505050565b600090565b6132cc6132bf565b6132d781848461329a565b505050565b5b818110156132fb576132f06000826132c4565b6001810190506132dd565b5050565b601f82111561334057613311816131e0565b61331a846131f5565b81016020851015613329578190505b61333d613335856131f5565b8301826132dc565b50505b505050565b600082821c905092915050565b600061336360001984600802613345565b1980831691505092915050565b600061337c8383613352565b9150826002028217905092915050565b61339582612447565b67ffffffffffffffff8111156133ae576133ad612200565b5b6133b882546131af565b6133c38282856132ff565b600060209050601f8311600181146133f657600084156133e4578287015190505b6133ee8582613370565b865550613456565b601f198416613404866131e0565b60005b8281101561342c57848901518255600182019150602085019450602081019050613407565b868310156134495784890151613445601f891682613352565b8355505b6001600288020188555050505b505050505050565b7f4e487b7100000000000000000000000000000000000000000000000000000000600052601160045260246000fd5b6000613498826121af565b91507fffffffffffffffffffffffffffffffffffffffffffffffffffffffffffffffff82036134ca576134c961345e565b5b600182019050919050565b7f416c726561647920766f74656400000000000000000000000000000000000000600082015250565b600061350b600d83612970565b9150613516826134d5565b602082019050919050565b6000602082019050818103600083015261353a816134fe565b9050919050565b6000815461354e816131af565b6135588186612970565b945060018216600081146135735760018114613589576135bc565b60ff1983168652811515602002860193506135bc565b613592856131e0565b60005b838110156135b457815481890152600182019150602081019050613595565b808801955050505b50505092915050565b600060408201905081810360008301526135df8185613541565b90506135ee6020830184612961565b9392505050565b7f596f7527766520676f7474612072656769737465722066697273740000000000600082015250565b600061362b601b83612970565b9150613636826135f5565b602082019050919050565b6000602082019050818103600083015261365a8161361e565b9050919050565b7f416c726561647920636f6e746573746564000000000000000000000000000000600082015250565b6000613697601183612970565b91506136a282613661565b602082019050919050565b600060208201905081810360008301526136c68161368a565b905091905056fea26469706673582212200c213960f98f85d893a70e7968a7b535e5d04df667d5ae9fbb12744be28ff04364736f6c63430008130033",
  "immutableReferences": {},
  "source": "//SPDX-License-Identifier: MIT\npragma solidity >=0.7.0 <0.9.0;\n\ncontract DemocracyChain {\n    address public election_commission;\n    constructor(address addr){\n        election_commission=addr;\n    }\n    struct PollStruct {\n        uint id;\n        string image;\n        string title;\n        string description;\n        uint votes;\n        uint contestants;\n        bool deleted;\n        address director;\n        uint startsAt;\n        uint endsAt;\n        uint timestamp;\n    }\n\n    struct ElectedPerson {\n        uint pollID;\n        uint id;\n        string image;\n        string fullname;\n        string partyName;\n        address voter;\n        uint votes;\n        address[] voters;\n    }\n\n    uint totalPolls;\n    uint totalUsers;\n    PollStruct[] polls;\n\n    mapping(address => ElectedPerson) public users;\n    mapping(uint =>  mapping(address => bool)) voted;\n    mapping(uint =>  mapping(address => bool)) contested;\n    mapping(uint =>  ElectedPerson[]) contestantsIn;\n    mapping(uint =>  bool) pollExist;\n\n    event Voted (\n        string fullname,\n        address indexed voter,\n        uint timestamp\n    );\n\n    modifier userOnly() {\n        require(users[msg.sender].voter == msg.sender, \"You've gotta register first\");\n        _;\n    }\n    modifier onlyElectionCommission(){\n         require(election_commission == msg.sender, \"You are not from election commission head \");\n        _;\n    }\n    function createPoll(\n        string memory image,\n        string memory title,\n        string memory description,\n        uint startsAt,\n        uint endsAt\n    ) public onlyElectionCommission {\n        require(bytes(title).length > 0, \"Title cannot be empty\");\n        require(bytes(description).length > 0, \"Description cannot be empty\");\n        require(bytes(image).length > 0, \"Image URL cannot be empty\");\n        require(startsAt > 0 && endsAt > startsAt, \"End date must be greater than start date\");\n\n        PollStruct memory poll;\n        poll.id = totalPolls++;\n        poll.title = title;\n        poll.description = description;\n        poll.image = image;\n        poll.startsAt = startsAt;\n        poll.endsAt = endsAt;\n        poll.director = msg.sender;\n        poll.timestamp = block.timestamp;\n\n        polls.push(poll);\n        pollExist[poll.id] = true;\n    }\n\n    function updatePoll(\n        uint id,\n        string memory image,\n        string memory title,\n        string memory description,\n        uint startsAt,\n        uint endsAt\n    ) public onlyElectionCommission {\n        require(pollExist[id], \"Poll not found\");\n        require(polls[id].director == msg.sender, \"Unauthorized entity\");\n        require(bytes(title).length > 0, \"Title cannot be empty\");\n        require(bytes(description).length > 0, \"Description cannot be empty\");\n        require(bytes(image).length > 0, \"Image URL cannot be empty\");\n        require(!polls[id].deleted, \"Polling already started\");\n        require(endsAt > startsAt, \"End date must be greater than start date\");\n\n        polls[id].title = title;\n        polls[id].description = description;\n        polls[id].startsAt = startsAt;\n        polls[id].endsAt = endsAt;\n        polls[id].image = image;\n    }\n\n    function deletePoll(uint id) public onlyElectionCommission {\n        require(pollExist[id], \"Poll not found\");\n        require(polls[id].director == msg.sender, \"Unauthorized entity\");\n        polls[id].deleted = true;\n    }\n\n    function getPoll(uint id) public view returns (PollStruct memory) {\n        return polls[id];\n    }\n\n    function getPolls() public view returns (PollStruct[] memory) {\n        return polls;\n    }\n\n    function register(\n        uint pollId,\n        string memory image,\n        string memory fullname,\n        string memory partyName\n    ) public {\n        require(pollExist[pollId], \"Poll not found\");\n        ElectedPerson memory person;\n        person.id = totalUsers++;\n        person.image = image;\n        person.fullname = fullname;\n        person.voter = msg.sender;\n        person.pollID=pollId;\n        person.partyName=partyName;\n        users[msg.sender] = person;\n        _contest(pollId,person);\n    }\n\n    function _contest(uint id,ElectedPerson memory _electedPerson) private userOnly {\n        require(pollExist[id], \"Poll not found\");\n        require(!contested[id][msg.sender], \"Already contested\");\n        contestantsIn[id].push(_electedPerson);\n        contested[id][msg.sender] = true;\n        polls[id].contestants++;\n    }\n\n    function listContestants(uint id) public view returns (ElectedPerson[] memory) {\n        require(pollExist[id], \"Poll not found\");\n        return contestantsIn[id];\n    }\n\n    function vote(uint id, uint cid) public  {\n        require(pollExist[id], \"Poll not found\");\n        require(!voted[id][msg.sender], \"Already voted\");\n        require(!polls[id].deleted, \"Polling already started\");\n        require(polls[id].endsAt > polls[id].startsAt, \"End date must be greater than start date\");\n\n        polls[id].votes++;\n        contestantsIn[id][cid].votes++;\n        contestantsIn[id][cid].voters.push(msg.sender);\n        voted[id][msg.sender] = true;\n\n        emit Voted (\n            users[msg.sender].fullname,\n            msg.sender,\n            block.timestamp\n        );\n    }\n}",
  "sourcePath": "/Users/nikku.jr.dev/Desktop/Democracy-Chain/contracts/DemocracyChain.sol",
  "compiler": {
    "name": "solc",
    "version": "0.8.19+commit.7dd6d404.Emscripten.clang"
  },
  "schemaVersion": "3.4.13",
  "updatedAt": "2023-04-15T03:15:09.692Z",
  "networkType": "ethereum",
  "devdoc": {
    "kind": "dev",
    "methods": {},
    "version": 1
  },
  "userdoc": {
    "kind": "user",
    "methods": {},
    "version": 1
  }
}