{
  "contractName": "ElectionDAO",
  "abi": [
    {
      "inputs": [],
      "stateMutability": "nonpayable",
      "type": "constructor"
    },
    {
      "inputs": [],
      "name": "electionCommissionHead",
      "outputs": [
        {
          "internalType": "address",
          "name": "",
          "type": "address"
        }
      ],
      "stateMutability": "view",
      "type": "function",
      "constant": true
    },
    {
      "inputs": [
        {
          "internalType": "uint256",
          "name": "",
          "type": "uint256"
        }
      ],
      "name": "proposals",
      "outputs": [
        {
          "internalType": "uint256",
          "name": "id",
          "type": "uint256"
        },
        {
          "internalType": "string",
          "name": "name",
          "type": "string"
        },
        {
          "internalType": "string",
          "name": "description",
          "type": "string"
        },
        {
          "internalType": "uint256",
          "name": "votes",
          "type": "uint256"
        },
        {
          "internalType": "uint256",
          "name": "end",
          "type": "uint256"
        },
        {
          "internalType": "bool",
          "name": "completed",
          "type": "bool"
        },
        {
          "internalType": "bool",
          "name": "accepted",
          "type": "bool"
        }
      ],
      "stateMutability": "view",
      "type": "function",
      "constant": true
    },
    {
      "inputs": [
        {
          "internalType": "address",
          "name": "",
          "type": "address"
        }
      ],
      "name": "registeredECMembers",
      "outputs": [
        {
          "internalType": "uint256",
          "name": "id",
          "type": "uint256"
        },
        {
          "internalType": "string",
          "name": "name",
          "type": "string"
        },
        {
          "internalType": "string",
          "name": "position",
          "type": "string"
        },
        {
          "internalType": "address",
          "name": "addr",
          "type": "address"
        },
        {
          "internalType": "bool",
          "name": "registered",
          "type": "bool"
        }
      ],
      "stateMutability": "view",
      "type": "function",
      "constant": true
    },
    {
      "inputs": [
        {
          "internalType": "address",
          "name": "",
          "type": "address"
        },
        {
          "internalType": "uint256",
          "name": "",
          "type": "uint256"
        }
      ],
      "name": "votes",
      "outputs": [
        {
          "internalType": "bool",
          "name": "",
          "type": "bool"
        }
      ],
      "stateMutability": "view",
      "type": "function",
      "constant": true
    },
    {
      "inputs": [
        {
          "internalType": "string",
          "name": "name",
          "type": "string"
        },
        {
          "internalType": "string",
          "name": "position",
          "type": "string"
        }
      ],
      "name": "registeredMembers",
      "outputs": [],
      "stateMutability": "nonpayable",
      "type": "function"
    },
    {
      "inputs": [
        {
          "internalType": "string",
          "name": "_name",
          "type": "string"
        },
        {
          "internalType": "string",
          "name": "_desc",
          "type": "string"
        },
        {
          "internalType": "uint256",
          "name": "duration",
          "type": "uint256"
        }
      ],
      "name": "createProposal",
      "outputs": [],
      "stateMutability": "nonpayable",
      "type": "function"
    },
    {
      "inputs": [
        {
          "internalType": "uint256",
          "name": "id",
          "type": "uint256"
        }
      ],
      "name": "voteProposal",
      "outputs": [],
      "stateMutability": "nonpayable",
      "type": "function"
    },
    {
      "inputs": [],
      "name": "allProposals",
      "outputs": [
        {
          "components": [
            {
              "internalType": "uint256",
              "name": "id",
              "type": "uint256"
            },
            {
              "internalType": "string",
              "name": "name",
              "type": "string"
            },
            {
              "internalType": "string",
              "name": "description",
              "type": "string"
            },
            {
              "internalType": "uint256",
              "name": "votes",
              "type": "uint256"
            },
            {
              "internalType": "uint256",
              "name": "end",
              "type": "uint256"
            },
            {
              "internalType": "address[]",
              "name": "voters",
              "type": "address[]"
            },
            {
              "internalType": "bool",
              "name": "completed",
              "type": "bool"
            },
            {
              "internalType": "bool",
              "name": "accepted",
              "type": "bool"
            }
          ],
          "internalType": "struct ElectionDAO.Proposal[]",
          "name": "",
          "type": "tuple[]"
        }
      ],
      "stateMutability": "view",
      "type": "function",
      "constant": true
    }
  ],
  "bytecode": "0x608060405234801561001057600080fd5b50336000806101000a81548173ffffffffffffffffffffffffffffffffffffffff021916908373ffffffffffffffffffffffffffffffffffffffff160217905550611dc9806100606000396000f3fe608060405234801561001057600080fd5b50600436106100885760003560e01c80634a2724081161005b5780634a27240814610119578063807896d5146101375780639f2524ee14610153578063d6cb9e7d1461018357610088565b8063013cf08b1461008d5780630ce0ebf4146100c3578063238bfc99146100df578063346193b6146100fb575b600080fd5b6100a760048036038101906100a29190610ffa565b6101b7565b6040516100ba97969594939291906110e1565b60405180910390f35b6100dd60048036038101906100d891906112f3565b610323565b005b6100f960048036038101906100f49190611383565b6105ff565b005b6101036107fb565b60405161011091906116d3565b60405180910390f35b610121610a61565b60405161012e9190611704565b60405180910390f35b610151600480360381019061014c9190610ffa565b610a85565b005b61016d6004803603810190610168919061174b565b610d20565b60405161017a919061178b565b60405180910390f35b61019d600480360381019061019891906117a6565b610d4f565b6040516101ae9594939291906117d3565b60405180910390f35b60016020528060005260406000206000915090508060000154908060010180546101e090611863565b80601f016020809104026020016040519081016040528092919081815260200182805461020c90611863565b80156102595780601f1061022e57610100808354040283529160200191610259565b820191906000526020600020905b81548152906001019060200180831161023c57829003601f168201915b50505050509080600201805461026e90611863565b80601f016020809104026020016040519081016040528092919081815260200182805461029a90611863565b80156102e75780601f106102bc576101008083540402835291602001916102e7565b820191906000526020600020905b8154815290600101906020018083116102ca57829003601f168201915b5050505050908060030154908060040154908060060160009054906101000a900460ff16908060060160019054906101000a900460ff16905087565b600260003373ffffffffffffffffffffffffffffffffffffffff1673ffffffffffffffffffffffffffffffffffffffff16815260200190815260200160002060030160149054906101000a900460ff166103b2576040517f08c379a00000000000000000000000000000000000000000000000000000000081526004016103a9906118e0565b60405180910390fd5b60606000604051806101000160405280600454815260200187878080601f016020809104026020016040519081016040528093929190818152602001838380828437600081840152601f19601f82011690508083019250505050505050815260200185815260200160008152602001844261042d919061192f565b81526020018381526020016000151581526020016000151581525090508060016000600454815260200190815260200160002060008201518160000155602082015181600101908161047f9190611b0f565b5060408201518160020190816104959190611b0f565b50606082015181600301556080820151816004015560a08201518160050190805190602001906104c6929190610ec2565b5060c08201518160060160006101000a81548160ff02191690831515021790555060e08201518160060160016101000a81548160ff02191690831515021790555090505060038190806001815401808255809150506001900390600052602060002090600702016000909190919091506000820151816000015560208201518160010190816105559190611b0f565b50604082015181600201908161056b9190611b0f565b50606082015181600301556080820151816004015560a082015181600501908051906020019061059c929190610ec2565b5060c08201518160060160006101000a81548160ff02191690831515021790555060e08201518160060160016101000a81548160ff0219169083151502179055505050600460008154809291906105f290611be1565b9190505550505050505050565b600260003373ffffffffffffffffffffffffffffffffffffffff1673ffffffffffffffffffffffffffffffffffffffff16815260200190815260200160002060030160149054906101000a900460ff161561068f576040517f08c379a000000000000000000000000000000000000000000000000000000000815260040161068690611c9b565b60405180910390fd5b610697610f4c565b60055481600001818152505082816020018190525081816040018190525033816060019073ffffffffffffffffffffffffffffffffffffffff16908173ffffffffffffffffffffffffffffffffffffffff1681525050600181608001901515908115158152505080600260003373ffffffffffffffffffffffffffffffffffffffff1673ffffffffffffffffffffffffffffffffffffffff16815260200190815260200160002060008201518160000155602082015181600101908161075d9190611b0f565b5060408201518160020190816107739190611b0f565b5060608201518160030160006101000a81548173ffffffffffffffffffffffffffffffffffffffff021916908373ffffffffffffffffffffffffffffffffffffffff16021790555060808201518160030160146101000a81548160ff021916908315150217905550905050600560008154809291906107f190611be1565b9190505550505050565b60606003805480602002602001604051908101604052809291908181526020016000905b82821015610a585783829060005260206000209060070201604051806101000160405290816000820154815260200160018201805461085d90611863565b80601f016020809104026020016040519081016040528092919081815260200182805461088990611863565b80156108d65780601f106108ab576101008083540402835291602001916108d6565b820191906000526020600020905b8154815290600101906020018083116108b957829003601f168201915b505050505081526020016002820180546108ef90611863565b80601f016020809104026020016040519081016040528092919081815260200182805461091b90611863565b80156109685780601f1061093d57610100808354040283529160200191610968565b820191906000526020600020905b81548152906001019060200180831161094b57829003601f168201915b50505050508152602001600382015481526020016004820154815260200160058201805480602002602001604051908101604052809291908181526020018280548015610a0a57602002820191906000526020600020905b8160009054906101000a900473ffffffffffffffffffffffffffffffffffffffff1673ffffffffffffffffffffffffffffffffffffffff16815260200190600101908083116109c0575b505050505081526020016006820160009054906101000a900460ff161515151581526020016006820160019054906101000a900460ff1615151515815250508152602001906001019061081f565b50505050905090565b60008054906101000a900473ffffffffffffffffffffffffffffffffffffffff1681565b600260003373ffffffffffffffffffffffffffffffffffffffff1673ffffffffffffffffffffffffffffffffffffffff16815260200190815260200160002060030160149054906101000a900460ff16610b14576040517f08c379a0000000000000000000000000000000000000000000000000000000008152600401610b0b906118e0565b60405180910390fd5b60001515600660003373ffffffffffffffffffffffffffffffffffffffff1673ffffffffffffffffffffffffffffffffffffffff168152602001908152602001600020600083815260200190815260200160002060009054906101000a900460ff16151514610bb8576040517f08c379a0000000000000000000000000000000000000000000000000000000008152600401610baf90611d07565b60405180910390fd5b60016000828152602001908152602001600020600401544210610c10576040517f08c379a0000000000000000000000000000000000000000000000000000000008152600401610c0790611d73565b60405180910390fd5b6001600660003373ffffffffffffffffffffffffffffffffffffffff1673ffffffffffffffffffffffffffffffffffffffff168152602001908152602001600020600083815260200190815260200160002060006101000a81548160ff02191690831515021790555060018060008381526020019081526020016000206003016000828254610c9f919061192f565b9250508190555060016000828152602001908152602001600020600501339080600181540180825580915050600190039060005260206000200160009091909190916101000a81548173ffffffffffffffffffffffffffffffffffffffff021916908373ffffffffffffffffffffffffffffffffffffffff16021790555050565b60066020528160005260406000206020528060005260406000206000915091509054906101000a900460ff1681565b6002602052806000526040600020600091509050806000015490806001018054610d7890611863565b80601f0160208091040260200160405190810160405280929190818152602001828054610da490611863565b8015610df15780601f10610dc657610100808354040283529160200191610df1565b820191906000526020600020905b815481529060010190602001808311610dd457829003601f168201915b505050505090806002018054610e0690611863565b80601f0160208091040260200160405190810160405280929190818152602001828054610e3290611863565b8015610e7f5780601f10610e5457610100808354040283529160200191610e7f565b820191906000526020600020905b815481529060010190602001808311610e6257829003601f168201915b5050505050908060030160009054906101000a900473ffffffffffffffffffffffffffffffffffffffff16908060030160149054906101000a900460ff16905085565b828054828255906000526020600020908101928215610f3b579160200282015b82811115610f3a5782518260006101000a81548173ffffffffffffffffffffffffffffffffffffffff021916908373ffffffffffffffffffffffffffffffffffffffff16021790555091602001919060010190610ee2565b5b509050610f489190610f93565b5090565b6040518060a00160405280600081526020016060815260200160608152602001600073ffffffffffffffffffffffffffffffffffffffff1681526020016000151581525090565b5b80821115610fac576000816000905550600101610f94565b5090565b6000604051905090565b600080fd5b600080fd5b6000819050919050565b610fd781610fc4565b8114610fe257600080fd5b50565b600081359050610ff481610fce565b92915050565b6000602082840312156110105761100f610fba565b5b600061101e84828501610fe5565b91505092915050565b61103081610fc4565b82525050565b600081519050919050565b600082825260208201905092915050565b60005b83811015611070578082015181840152602081019050611055565b60008484015250505050565b6000601f19601f8301169050919050565b600061109882611036565b6110a28185611041565b93506110b2818560208601611052565b6110bb8161107c565b840191505092915050565b60008115159050919050565b6110db816110c6565b82525050565b600060e0820190506110f6600083018a611027565b8181036020830152611108818961108d565b9050818103604083015261111c818861108d565b905061112b6060830187611027565b6111386080830186611027565b61114560a08301856110d2565b61115260c08301846110d2565b98975050505050505050565b600080fd5b600080fd5b600080fd5b60008083601f8401126111835761118261115e565b5b8235905067ffffffffffffffff8111156111a05761119f611163565b5b6020830191508360018202830111156111bc576111bb611168565b5b9250929050565b600080fd5b7f4e487b7100000000000000000000000000000000000000000000000000000000600052604160045260246000fd5b6112008261107c565b810181811067ffffffffffffffff8211171561121f5761121e6111c8565b5b80604052505050565b6000611232610fb0565b905061123e82826111f7565b919050565b600067ffffffffffffffff82111561125e5761125d6111c8565b5b6112678261107c565b9050602081019050919050565b82818337600083830152505050565b600061129661129184611243565b611228565b9050828152602081018484840111156112b2576112b16111c3565b5b6112bd848285611274565b509392505050565b600082601f8301126112da576112d961115e565b5b81356112ea848260208601611283565b91505092915050565b6000806000806060858703121561130d5761130c610fba565b5b600085013567ffffffffffffffff81111561132b5761132a610fbf565b5b6113378782880161116d565b9450945050602085013567ffffffffffffffff81111561135a57611359610fbf565b5b611366878288016112c5565b925050604061137787828801610fe5565b91505092959194509250565b6000806040838503121561139a57611399610fba565b5b600083013567ffffffffffffffff8111156113b8576113b7610fbf565b5b6113c4858286016112c5565b925050602083013567ffffffffffffffff8111156113e5576113e4610fbf565b5b6113f1858286016112c5565b9150509250929050565b600081519050919050565b600082825260208201905092915050565b6000819050602082019050919050565b61143081610fc4565b82525050565b600082825260208201905092915050565b600061145282611036565b61145c8185611436565b935061146c818560208601611052565b6114758161107c565b840191505092915050565b600081519050919050565b600082825260208201905092915050565b6000819050602082019050919050565b600073ffffffffffffffffffffffffffffffffffffffff82169050919050565b60006114d7826114ac565b9050919050565b6114e7816114cc565b82525050565b60006114f983836114de565b60208301905092915050565b6000602082019050919050565b600061151d82611480565b611527818561148b565b93506115328361149c565b8060005b8381101561156357815161154a88826114ed565b975061155583611505565b925050600181019050611536565b5085935050505092915050565b611579816110c6565b82525050565b6000610100830160008301516115986000860182611427565b50602083015184820360208601526115b08282611447565b915050604083015184820360408601526115ca8282611447565b91505060608301516115df6060860182611427565b5060808301516115f26080860182611427565b5060a083015184820360a086015261160a8282611512565b91505060c083015161161f60c0860182611570565b5060e083015161163260e0860182611570565b508091505092915050565b6000611649838361157f565b905092915050565b6000602082019050919050565b6000611669826113fb565b6116738185611406565b93508360208202850161168585611417565b8060005b858110156116c157848403895281516116a2858261163d565b94506116ad83611651565b925060208a01995050600181019050611689565b50829750879550505050505092915050565b600060208201905081810360008301526116ed818461165e565b905092915050565b6116fe816114cc565b82525050565b600060208201905061171960008301846116f5565b92915050565b611728816114cc565b811461173357600080fd5b50565b6000813590506117458161171f565b92915050565b6000806040838503121561176257611761610fba565b5b600061177085828601611736565b925050602061178185828601610fe5565b9150509250929050565b60006020820190506117a060008301846110d2565b92915050565b6000602082840312156117bc576117bb610fba565b5b60006117ca84828501611736565b91505092915050565b600060a0820190506117e86000830188611027565b81810360208301526117fa818761108d565b9050818103604083015261180e818661108d565b905061181d60608301856116f5565b61182a60808301846110d2565b9695505050505050565b7f4e487b7100000000000000000000000000000000000000000000000000000000600052602260045260246000fd5b6000600282049050600182168061187b57607f821691505b60208210810361188e5761188d611834565b5b50919050565b7f596f7520617265206e6f7420616e64204563206d656d62657200000000000000600082015250565b60006118ca601983611041565b91506118d582611894565b602082019050919050565b600060208201905081810360008301526118f9816118bd565b9050919050565b7f4e487b7100000000000000000000000000000000000000000000000000000000600052601160045260246000fd5b600061193a82610fc4565b915061194583610fc4565b925082820190508082111561195d5761195c611900565b5b92915050565b60008190508160005260206000209050919050565b60006020601f8301049050919050565b600082821b905092915050565b6000600883026119c57fffffffffffffffffffffffffffffffffffffffffffffffffffffffffffffffff82611988565b6119cf8683611988565b95508019841693508086168417925050509392505050565b6000819050919050565b6000611a0c611a07611a0284610fc4565b6119e7565b610fc4565b9050919050565b6000819050919050565b611a26836119f1565b611a3a611a3282611a13565b848454611995565b825550505050565b600090565b611a4f611a42565b611a5a818484611a1d565b505050565b5b81811015611a7e57611a73600082611a47565b600181019050611a60565b5050565b601f821115611ac357611a9481611963565b611a9d84611978565b81016020851015611aac578190505b611ac0611ab885611978565b830182611a5f565b50505b505050565b600082821c905092915050565b6000611ae660001984600802611ac8565b1980831691505092915050565b6000611aff8383611ad5565b9150826002028217905092915050565b611b1882611036565b67ffffffffffffffff811115611b3157611b306111c8565b5b611b3b8254611863565b611b46828285611a82565b600060209050601f831160018114611b795760008415611b67578287015190505b611b718582611af3565b865550611bd9565b601f198416611b8786611963565b60005b82811015611baf57848901518255600182019150602085019450602081019050611b8a565b86831015611bcc5784890151611bc8601f891682611ad5565b8355505b6001600288020188555050505b505050505050565b6000611bec82610fc4565b91507fffffffffffffffffffffffffffffffffffffffffffffffffffffffffffffffff8203611c1e57611c1d611900565b5b600182019050919050565b7f596f752061726520616c726561647920616e207265676973746572656420666f60008201527f72204543204d656d626572000000000000000000000000000000000000000000602082015250565b6000611c85602b83611041565b9150611c9082611c29565b604082019050919050565b60006020820190508181036000830152611cb481611c78565b9050919050565b7f596f752063616e6e6f7420766f746520646f75626c652074696d652000000000600082015250565b6000611cf1601c83611041565b9150611cfc82611cbb565b602082019050919050565b60006020820190508181036000830152611d2081611ce4565b9050919050565b7f50726f706f73616c2069732020656e6400000000000000000000000000000000600082015250565b6000611d5d601083611041565b9150611d6882611d27565b602082019050919050565b60006020820190508181036000830152611d8c81611d50565b905091905056fea26469706673582212205fc21051e39b7b0fee6ceeadf461c7ef7502f7d1a6c69a56ce723d9a3ce7d67664736f6c63430008130033",
  "immutableReferences": {},
  "source": "// SPDX-License-Identifier: MIT\npragma solidity ^0.8.11;\n\ncontract ElectionDAO{\n\n    address public electionCommissionHead;\n    constructor(){\n        electionCommissionHead=msg.sender;\n    }\n    //create Investment proposal \n    struct Proposal{\n        uint id;\n        string name;\n        string description;\n        uint votes;\n        uint end;\n        address[] voters;\n        bool completed;\n        bool accepted ;\n    }\n    struct ECMember{\n        uint id;\n        string name;\n        string position;\n        address addr;\n        bool registered;     \n    }\n\n    mapping(uint=>Proposal) public proposals;\n    mapping(address=>ECMember) public registeredECMembers;\n    Proposal[] private proposalList;\n    uint private nextId;\n    uint private memberID;\n    mapping(address=>mapping(uint=>bool)) public votes;\n\n    modifier alreadyRegistered(){\n        require(!registeredECMembers[msg.sender].registered,\"You are already an registered for EC Member\");\n        _;\n    }\n    function registeredMembers(string memory name,string memory position) public alreadyRegistered{\n        ECMember memory ecmember;\n        ecmember.id=memberID;\n        ecmember.name=name;\n        ecmember.position=position;\n        ecmember.addr=msg.sender;\n        ecmember.registered=true;\n        registeredECMembers[msg.sender]=ecmember;\n        memberID++;\n    } \n    modifier onlyECMember(){\n        require(registeredECMembers[msg.sender].registered,\"You are not and Ec member\");\n        _;\n    }\n    function createProposal(string calldata _name ,string memory _desc , uint duration) external onlyECMember {\n        \n        address[] memory _voters;\n        Proposal memory newProposal = Proposal({\n            id:nextId,\n            name:_name,\n            description:_desc,\n            votes:0,\n            end:block.timestamp + duration,\n            voters:_voters,\n            completed:false,\n            accepted:false\n        });\n\n        proposals[nextId]=newProposal;\n        proposalList.push(newProposal);\n        nextId++;\n\n    }\n\n    function voteProposal(uint id) external onlyECMember  {\n        require(votes[msg.sender][id]==false,\"You cannot vote double time \");\n        require(block.timestamp<proposals[id].end,\"Proposal is  end\");\n        votes[msg.sender][id]=true;\n        proposals[id].votes+=1;\n        proposals[id].voters.push(msg.sender);\n    }\n\n    function allProposals() external view returns(Proposal[] memory){\n        return proposalList;\n    }\n    \n\n\n}",
  "sourcePath": "/Users/nikku.jr.dev/Desktop/Democracy-Chain/contracts/ElectionDAO.sol",
  "compiler": {
    "name": "solc",
    "version": "0.8.19+commit.7dd6d404.Emscripten.clang"
  },
  "schemaVersion": "3.4.13",
  "updatedAt": "2023-04-15T03:15:09.751Z",
  "networkType": "ethereum",
  "devdoc": {
    "kind": "dev",
    "methods": {},
    "version": 1
  },
  "userdoc": {
    "kind": "user",
    "methods": {},
    "version": 1
  }
}